:100000000C94F60A0C94230B0C94230B0C94230BE6
:100010000C94230B0C94230B0C94230B0C94230BA8
:100020000C94230B0C94230B0C94230B0C94230B98
:100030000C94CB4C0C94230B0C94230B0C94230B9F
:100040000C94230B0C9458280C94230B0C94230B26
:100050000C94230B0C94230B0C94230B0C94230B68
:100060000C94230B0C94A24C0C94784C0C94230B02
:100070000C94230B0C94230B0C94230B0C94230B48
:100080000C94230B0C94230B0C94230B0C94230B38
:100090000C94230B0C94230B0C94230B0C94230B28
:1000A0000C94230B0C94230B0C94230B0C94230B18
:1000B0000C94230B0C94230B0C94230B0C94230B08
:1000C0000C94230B0C94230B0C94230B0C94230BF8
:1000D0000C94230B0C94230B0C94230B0C94230BE8
:1000E0000C94230B0C9421260C942B2B0C9460372E
:1000F0000C94DE220C9432340C94D9450C94633663
:100100000C94C2410C942D1E0C94C7300C94924157
:100110000C9452250C94B23A0C94CA410C94893830
:100120000C949D270C94EC360C94C7430C946D31C1
:100130000C94671F0C94CF360C9444270C94704693
:100140000C94C93D0C94AB430C94EE250C94FD3DEE
:100150000C942D1D0C942C1E0C948F370C949E36F1
:100160000C94F81B0C944A240C94BA460C947725F2
:100170000C94AE420C94DA460C94861C0C94E41950
:100180000C94E61D0C94701A0C94E21C0C94521FF3
:100190000C9465240C9463230C94E91B0C948C350B
:1001A0000C942B330C941B200C943E1C0C94F93CA7
:1001B0000C949F250C94E0240C94F0440C94333F51
:1001C0000C940D240C9423380C9490220C94A326A8
:1001D0000C949A340C944F220C94B0290C94E34361
:1001E0000C94F41A0C941D220C94D3220C94361DFA
:1001F0000C94E53B0C94A62B0C94B01D0C940B2E88
:100200000C94463C0C94562A0C94F42F0C94DB1757
:100210000C94073A0C9468420C94BC460C94062A41
:100220000C94F8370C94361B0C9481450C94A8332D
:100230000C9484240C94E42F0C942E390C940F3ECF
:100240000C94D1440C94BD3A0C942F350C94A324F7
:100250000C94B52D0C94E82B0C9475270C941B254D
:100260000C94AD2D0C94CC3E0C9420360C948B2B1E
:100270000C94112C0C94F51B0C94AD3C0C94901B1D
:100280000C94B5230C94D6170C94183B0C9462452F
:100290000C94D3340C946E3F0C94A73A0C944A1EE1
:1002A0000C943C3E0C94C5270C94413D0C94DC35D9
:1002B0000C94F93A0C94933E0C94373B0C940D3902
:1002C0000C9418200C945F180C94263D0C946C4CE4
:1002D0000C94C83A0C94382A0C94B7370C94F22337
:1002E0000C9461380C94931F0C94CA210C945246C0
:1002F0000C94D6390C940E1D0C9401310C94231BD4
:100300000C94012B04010101000104040404000009
:1003100000040401010101010404010104000004BE
:1003200004040404000004040404040000000004A5
:1003300004000000000400000000000000040000B1
:100340000000000400020000040004000004070490
:10035000040000040404000002020000000204077C
:100360000004000404000004000202040404040465
:100370000000040004040404040404000400020354
:100380000400040400040004000004000400000051
:1003900000000000000001000201028B03F81B02B4
:1003A000000001000000E91B03000001000000F54F
:1003B0001B040000010000003E1C050000010000BD
:1003C00000231B06000100018C14361B07000001EE
:1003D000000000F41A08000100018A03901B0900C4
:1003E00000010000002C1E0A000201018714521FA8
:1003F0000B0003010387032D1E0C0002010285037D
:10040000671F0D000200028B03D6170E00020002C8
:1004100073145F180F000300038703D9451000020F
:100420000002850352461100050005800370461244
:10043000000200027314603713000100018A03B741
:1004400037140002000285038F3715000200027383
:1004500014CF3616000400047C03E41917000500CD
:10046000057703DB1718000100018A03C93D190055
:100470000800086F033C3E1A000300036C03933E20
:100480001B000200027314333F1C000200028503AC
:100490000F3E1D000400046B14CC3E1E0001000141
:1004A0008A03FD3D1F000800086403AE42200002DD
:1004B000000285036842210004000375140B2E22FC
:1004C000000300027814E42F23000300027814F4E0
:1004D0002F24000400046F14CA4125000100018A82
:1004E00003C2412600030003610392412700040078
:1004F000035E03CA21280003000278141B20290090
:100500000400046F14B52D2A000100018A03AD2DEB
:100510002B000300035B032D1D2C000300037A1442
:10052000361D2D000600065503B01D2E00020002E8
:1005300073149A342F0005000550032F3530000442
:1005400000048114E21C310002000273140E1D32FB
:10055000000400034D03323433000500054803D383
:100560003434000100018A03562A35000400035C7C
:1005700014012B360005000543032B2B3700040024
:10058000046F14062A38000300036103382A390077
:100590000300027814D1443A000300027814624543
:1005A0003B000600063D03F0443C000300027814C3
:1005B000AB433D000300027814C7433E0008000827
:1005C0003503E3433F000600063D03814540000537
:1005D00000053003112C41000600062A03A62B4219
:1005E000000300036C03E82B43000100018A03E5CC
:1005F0003B44000200028503F93C450002000273FF
:1006000014183B46000100018A03373B47000200F3
:10061000028503AD3C48000400042603463C490023
:100620000100018A03A3264A000200028503C83A9A
:100630004B000200027314F93A4C000100018A03D6
:1006400021264D00020002850344274E00020002CD
:10065000731484244F000100018A030D245000020A
:10066000000285039F25510002000273144A2452A0
:10067000000400042203EE2553000100018A03B5A3
:100680002354000200028503E02455000200027397
:1006900014F2235600030003681477255700010065
:1006A000018A03DE2258000200028503A3245900B8
:1006B0000100018A031B255A000600061C03632360
:1006C0005B000300036C0352255C000200027314FC
:1006D00065245D0003000278142E395E00040004D6
:1006E0006B14073A5F000300036C03D63960000304
:1006F00000036C03F8376100040004180323386218
:1007000000070007110361386300020002731489B7
:100710003864000100018A039D2765000700070A6D
:1007200003C52766000600060403013167000200C6
:10073000027314C730680000010000006C4C6900AF
:1007400000000500000078DA9D5A7B6FDBC811FFBE
:100750002AAC80A0BDC276454AA22417F9C30F2552
:100760007113273ECB6E0E2D0A8226571211BE8EB4
:100770004BFAD143BE7BE7B12F52720EBD0086B853
:10078000BBB3BBB3B3F3F8CD6C7E1BC5753D3A1D4F
:100790007DCCB3BA16CDE868F4D065791A3D8A46A7
:1007A00066552961689B24A7DE5FDE5F5CFCE4CDB3
:1007B0004EA62763EF212BBB36CB25F67EBEF7CEA8
:1007C00055F3272F3809C29360EC87633F98C152D5
:1007D0004955147199C222BF8DE254FA41308EE21C
:1007E000B68D935D9457711A2522CFA3BAA91E84A2
:1007F0005765E9DB378937E88EB87B74BA981D8D69
:10080000E23CAF92B8A54EE9255557B63C863CB7B9
:100810002D301BC5C937BD921D9F860E419A6A8235
:10082000BA92F493956FDF745EDDC19E5DCD139C2B
:10083000157FED44F362D60406BE217523641BB513
:1008400059F24D72AB6DE25216591BE95DBDAC0415
:1008500009AAFDE720895CC44D24775D9B564FE5CE
:10086000E83440E1949B6C1B29B9E82D649DA943B1
:100870007B69DCC65123E2F4256226E1A8A133EFAF
:10088000399F4C67FBF346A7E1D25295715E6DA389
:10089000AC34A7562B4D2C07EAA89A829B91233F94
:1008A000BB1C758AA6BF584F7633CB619A6DB336A1
:1008B000CEA3AA6B07131EE3BC137444B189BBBC5F
:1008C0008D4C47113F4769D7C42DE81EF1E9CFCDC4
:1008D0007A0234A9ADEADE5A496FF3C06EBE4BA767
:1008E000D3F9C288B5914A869ED01FE9D47CCDCC7D
:1008F0005768BEE6E64BE4F18BB96C90AE95DCEE42
:1009000079EE3FEB2DB6710652DBC56529723A1BB5
:100910009C5BAF2193FC9BBD44BB4016249EBEB59F
:10092000A9D39D14C178395DE8A581CC5CEE7C61CA
:10093000C8F234F1433F3844B50C8654D153D6EE57
:100940004011DA877D7A0FBB993F9CEBDBB9990C9C
:10095000D227AB1932EA7F46ED4B4DF7068470F68D
:10096000ACD61DC0A7C3C1615B97958C36590EFAF2
:1009700064D83E0E6666565177CB60363E28034BF0
:10098000558AAACE9E453ED030B21D99FD1778D922
:1009900075E0B0DA0835CBB15829A00B2ECCDEEBD0
:1009A0006C6A16AD9F8A035A9BBC8015DB3594CECA
:1009B000EEBAA11643CF9E1A4F2DC7F6D87A7DA462
:1009C00096224162A9C4604D0E0C7BC807FAB93665
:1009D0007B14D12EDBEE68C264E1D283D56F7371D4
:1009E000C0A398317B4DCB596FA6F6508726ABA19B
:1009F000A890DBB76FFE0A4E7D32E9CD4505439DD9
:100A00004FA4D1E989B55ED9CE97D6CD25F28069BC
:100A10007812344A7FBE9449D4373D2F29D2686872
:100A20008D334752ADC010665887A6D2692FCD1AB4
:100A3000FDC98E99882D55974BE12C1AD883B53B6B
:100A4000D11415F8BDFAA044DD612BD4D0FAA1B6BB
:100A500048BAB831AAD43C477B4ED36B4D272A6A9B
:100A60009B15828F66EDB06D501E56ACE3A3512AE4
:100A70001E3A50FF0A82F752B760952DA93EDF8FCC
:100A80006FC8308A7855938A06F78320D8B0730DE3
:100A900034C15393B5628F02759C098115518866E4
:100AA0002BCAE425422F0C4C40177BE46857156293
:100AB0002F46CAB8A85D7B516D1321FB311458B77E
:100AC00051808F6B64DC64DB2D38093884ACD845E9
:100AD000A19BD09B5384069EE25618010560CB9BD8
:100AE0000C621F78808865E8254DC2FEFB68B4055E
:100AF000E3273E41C8AA4534E059B8D9D5780B6000
:100B0000B647231548C0404B7062456AE2247EB365
:100B10009C437F408657E039515C91C17550C4F8C1
:100B2000A31808B6412FC897A9F449902D7AD81771
:100B3000E542C5F62513A28F0347ED7A506892FF70
:100B40000361E12FDEB390ACF453DFCE924FEE445D
:100B50003051639669EC28B06334BDA5C2292FA536
:100B6000B46A28882908224B45D9661B80569B0DFC
:100B7000EC48E66D100770A2A3168C75AF2858BB21
:100B8000830D77559E52E3C72AE389A6A97A2AB432
:100B90000426869276B7F93F177C0D1BA21E81535F
:100BA00024B11C07F3FD3D0FA9EF71B0D827C47B1A
:100BB0000198B9B56E28DE88F6850D4A62307BFB58
:100BC000261B76C6CFD8D9C68D323C494D75986D57
:100BD0001317C4247D44E03BB57566C803188A8E9C
:100BE000AEA4D686BD59E08C74756A596750BDEBCA
:100BF0009CCB9E819FE0330E906E4F4EA0DDD301C3
:100C00001DC9A4B3B164E12CD483BE8385C2C58061
:100C10006EB8503837044374FC079D57619D970A9E
:100C2000FEB6455706D84824DF1C4C3DF1350F036E
:100C3000486D38A82BB8F9E1FE4EDC9BE9057A2017
:100C40007428D4718F6A2889F9520F0F11E7609DBB
:100C5000F97C48B8B754A82906A874C8D16240479F
:100C60004637D0FF85E1AB0F40875CF97DB23D9EF2
:100C7000CCE9075872B8CE7440B7B79051BD3D74F7
:100C8000F503B30730956DF8BA9766075E792024AF
:100C900038B111F021C0F1CA268EDAF5B48E1B00EE
:100CA0007420FEA58ED285AC339D38949A993D2A46
:100CB0001714FB66CA00131B72A3E9E0D7A79A18A2
:100CC000519567730BD13090D02E7E47E1027EC1E3
:100CD000CF04E04C088EA3CB99AA6F5A8043F470DE
:100CE000439801D78A34EE21068925303ED923A2C4
:100CF000231088376BF6103D4C0A7952299E150B4C
:100D0000001C4DFCCA1AC6163E136981FC4E7600C3
:100D10006241566CAE837319BFEB954B17FD838C04
:100D2000C46683895A046850E50398AD0F96505302
:100D30004C30E06694A5CF2AB71A5338A8A4AF7EEA
:100D400003F53B51BF5376F38825874B3BC6B8B7B5
:100D5000308EF1D2F8E5AB45502636B9C06AC8C628
:100D6000FA341B0C9613A673C289333A99EAD11E42
:100D70006EC12E855B8A2A150E7E8129A19DD20720
:100D80002D45262B0D558A4A6687F20DBDDC10FFD6
:100D9000878ACDD70F3201BBE08CE647C070B6E83A
:100DA000531DC685B3395251EE1221F884189A3971
:100DB000570B6AB9B4040479D14439861F442B30E7
:100DC00003365699474FD604C80C60E4600EF7AF5F
:100DD00066A310155E3960750B4BD7BA198DA8AB99
:100DE00046C1697651D43686209EEB0CD0870BDE47
:100DF0009766A5C1295C22100A438B43CECAB1F382
:100E0000E9779D256195F1ECF222BA3EFB05731F4F
:100E10004CE2CEEFD7D1CDD5E735FAEDD1E9E8E612
:100E20007C7274731EC09F3F7206DB271ABC1C1FA6
:100E3000DD5CE2C0C5A72F171FA377B7AB9FD125F5
:100E40008CE9DFD1E8FAE21EA8E2B610DB3898851B
:100E50006320BCF97ACDBB05188E6F5717ABAB7FFB
:100E6000AEA2AF579F2FBF7CC56B0BB073BDBA85C9
:100E70004EE64234599CE35E2BD86B857BC1E8D5A6
:100E8000D9A7E8FCECFE1297E1ADD6776777EB685F
:100E90007D7FBDFE1946D62B1C09B17B7573B3BA95
:100EA0008DBEDCDC5D5D5FFD6B7519DD7FC63E468A
:100EB000D47A147FA3F32F771FA2D5E57B98EA7F1E
:100EC000C75CA983EC8DCA11548C75CB37D806B09A
:100ED0004EA89BC434FECEE81D88708CA4837DBDD3
:100EE0001A0F8E7CBA5A07977050D81C3E27971F4E
:100EF0007833302E1CBD391B8F4EFF3D3E5AFC0708
:100F000004758EDF0BFEBEC06F70B5D4B8C406F892
:100F10007D6AACB001BE8E1AEFB03155F3DF53439A
:100F20002DF0011B33B5C03FB03157733ED2366A46
:100F3000CE276AE09CEF3DEFA4B88FFDC96442CC98
:100F4000C772369ECE539240D1860B3FA4EC163F1B
:100F500083505216D8E66236F68307B809B59892E0
:100F60008E9118BAC30C6DA381241CBCA5D2468FE8
:100F7000B476C330902B94673915753D9DA0A61C9F
:100F8000AD2EE2D22BAB161C2EFC551B082C4F05A8
:100F900047158F8CC97BDA65F0CD4621BD1ACC1A76
:100FA00076E270A8E7765210F4687C6F53351EE83D
:100FB000E7DF753B93389A523F7549CED360EA9F7D
:100FC0005B0CC79ECCB6C010A455718BD4B1629394
:100FD0006315E7DC8A582229DA225706B8970237C8
:100FE0002D0D9C8AD2D3E518331FACE1821F04BCBF
:100FF0003A6EC0163887A2A45B0F340200846CA935
:10100000A8FF2E86F3A65E5B79E4C2B0564A9E879F
:1010100033E9775C42D361302B53F1ECE57183EE19
:10102000048E50F6AA6A5CC4FEF00B2265ACD3FEB7
:101030004DD5697BB7E3F9C7537E2DB80A2EBCCFD7
:1010400067171F19A7630B2CF2F64EF78DDDBEDB79
:10105000D5D9A51A40C7860377EC43D9675E310C12
:10106000F37495DD3E16301AE2B0A7A9D48B09D5EA
:10107000256C1F90A1C8E242C091B93CA5078B0A1C
:101080007084929A87054F748976D894474D41941D
:10109000CB037BE32A8D33FB4F1CD6E1A23DB61A6E
:1010A0002C18E95E2C4C6AC78BDEDAE95710199DC3
:1010B000859A385DF40928ADB767925CC8D3143DB2
:1010C0000CECAE02B7711D3FE38D2DB44019035CEB
:1010D0000B2963B842512610D3B562E1402651EB8B
:1010E0002524606997637D0C2623BEF3545821158F
:1010F000108F026F02A1DDEB1376719392512A6A71
:101100002C7F5EA3F809F37AF0D56CF2EA8941F3FB
:1011100067B0C6D8E3E3A01B20A78878C01D00FBFA
:10112000E4817030232B6B4696FCA0424325726A03
:10113000BBE7147E8C95D64D85597C01ACC778B63B
:101140000DC016E012842DD0C120A2B915EA506856
:1011500054E801601B14355C035A1C86B035550FEA
:10116000943934021F01713696C6D766EE9EE0BCF4
:10117000A72CCF21D027B055AFF4CDD0C5CE34C2E7
:10118000FBC10C84BA6B70247CBDC41B52644557F0
:10119000E83E6D37C8B0AE57D3031B2C46AE87DC94
:1011A000A8FBD6B656BEA8AD2A6F13D3C1F9D09806
:1011B00071DCB9DA86D204422AE8735CBD2351E1BE
:1011C0004CC038525068B82F655723CE11EC972881
:1011D00018E0C3D0D7B84D7669B56501FF894BC11A
:1011E000F47009A1B32BBFC1C2E8D4F85DCBE99775
:1011F00076002790F980D793E0ACD1B80141492F10
:10120000917CF5F89E88011C6D8276EF2C379C84CA
:10121000D9513628CE414C2F5A6E7F8E7D04602FD7
:101220005E953938FE4760297EC8B53F37025D625A
:1012300071F559A451D1E5A78EDE63C17A504AC237
:10124000406298C0BA11F2DB6AFF888553C4E0B9E6
:1012500037E01608E991D7C420F5F49B72515B6220
:10126000ED10DD37AB7102C3740C3793212500AB51
:10127000005640A3B31220B58EB60479555D9E206A
:10128000395E2E850E7EB1E8D5C7DC41AC651D0008
:10129000A5B813DB2D3E81A880C75E01A1388083ED
:1012A000BD67024407801C27FE6236230CA21A2168
:1012B00081106E8433D25D6884E11CBE27DF09840F
:1012C00025A016307F844FEFEF6F3E3D4E4694349D
:1012D000D7E00B05BFB4EBAA563F91A3A4F650DAB2
:1012E0007E8C315CBF77F7A6C44ECD8AF33DCE58D5
:1012F0008EF1B98992739B1F1CFBE60DCA43A0486F
:101300005F944250DD1DFBB406517A066A13997250
:10131000004EA7A722AA85FD886F35457D44CEFEE5
:1013200033FBD821C178CDDBC5B1EF3C16F456DED6
:101330005505F8F7FD3DDCB7089C3FB175F7484B04
:10134000DA2925515B0966692BDB0EA9297173D255
:101350007782A45803B722F186F051490541D3ABF7
:101360008532E7005A651D794C0E9490DDC9B03B7B
:10137000CFD75998BB8E5313415463AABD4AB63A8E
:1013800033EF92846AFE2826F05B705CF7FDE998E3
:10139000EB29E8C5002E43DAEDE6BF12314B998800
:1013A00041B9D847CCE4CEE995E26CD94915CB7464
:1013B00096C9151B77C9878E4260CAB55440ACE008
:1013C000C822EDABA4563AD8CB46105DFB7DE52A8A
:1013D0000ED638F614C2ADD5B99A11F44B0ABFA790
:1013E00048E4E610ED12C63F46C8877C496B00B260
:1013F0002BD48FFC553D2F8C6D9D605044E0C23C3A
:10140000966A101DF6DC51FF4A0F7A898EE321DFC0
:10141000F3D49616F6CF804505E27FEE560BACD29C
:1014200025717948DDF69F5190D300BD2D2514FC20
:10143000D0DDF54697E00DD5FF52026FF8383EF14A
:101440002727E3E349303EDE268BF124982EA7E1DF
:10145000E8FBFF005DBC5F73120D0000040207048F
:101460000000020002040007040400040000040459
:101470000000000404040407040704000204040438
:10148000000404000404010704000402000000003A
:101490000000000600020281001003681480004072
:1014A000035C147F001D065F147E00400365147DFD
:1014B000000F0368147C0014046B147B0017046F86
:1014C000147A000A027314790040027814780040FC
:1014D0000375147700400278147600400278147582
:1014E0000010037A14740011047D14730011048138
:1014F0001472000D02851471000B018C14700040F1
:101500000187146F00120488146E000B018C146D97
:101510000010028D146C0015038F1400004002921D
:10152000146B000E0294146A0009019614690006F7
:1015300000000020002300260029002C002F00328C
:1015400000000100000301060109010F47004400EB
:10155000450080013548004400450020010D880009
:101560008000810080000E8A008000810020000F32
:101570008C008000810008000CB300B000B1008036
:10158000033EB400B000B100200323980090009106
:10159000008000249A00900091002000259C00907B
:1015A00000910008003BA800A000A10080003CAA18
:1015B00000A000A10020003DAC00A000A100080098
:1015C0005B28012001210180005C2A01200121010A
:1015D00020005D2C0120012101080028292A2B2C44
:1015E0002D2E2F50515253545556570011241FBEC3
:1015F000CFEFD1E2DEBFCDBF00E00CBF14BE0FB60F
:10160000F894A895809160008861809360001092A2
:1016100060000FBE12E0A0E0B2E0E4E8FCE900E008
:101620000BBF02C007900D92A033B107D9F723E09A
:10163000A0E3B2E001C01D92A23AB207E1F70E9416
:101640008E290C94404E0C940000CF93DF93CDB7BD
:10165000DEB7A1970FB6F894DEBF0FBECDBF0E94D4
:101660007B296B017C0180912602882311F40C9464
:10167000BF130E947B29C61AD70AE80AF90AF89410
:1016800080912602882361F08FEF80932702809358
:10169000260278940000F894809126028111F9CFF7
:1016A00078940E947B2997018601060F171F281F37
:1016B000391F0A8F1B8F2C8F3D8F81E0809326026C
:1016C00080916302882309F443C0109263028FEF74
:1016D00089838E010F5F1F4F35EEE32E34E1F32E29
:1016E0006DEF7DE3C8010E94AC1B6C01892B81F179
:1016F000D60156968C9182FFF3CF0E947B29F894F5
:10170000F60137892689422F4B7F468B78949F9329
:101710008F937F936F931F923F9321701F922F930C
:1017200089811F928F93FF92EF920E94983F2DB76D
:101730003EB7245F3F4F0FB6F8943EBF0FBE2DBF9C
:101740006DEF7DE3C8010E94AC1B6C01892B81F613
:1017500080916402882339F1109264028FEF8983AB
:101760008E010F5F1F4F2FEDE22E24E1F22E68E66F
:1017700072E4C8010E94AC1BFC01892BA1F0958D7D
:10178000868D9813F4CFF894858D968D891711F472
:101790000C94EA14789468E672E4C8010E94AC1BC9
:1017A000FC01892B61F780915302882321F110926B
:1017B00053028FEF89838E010F5F1F4F9DECE92E3F
:1017C00094E1F92E6EE07DE1C8010E94AC1B009708
:1017D00091F0DC0158962C912F3FA1F7F894FC0171
:1017E0002685211196C778946EE07DE1C8010E949C
:1017F000AC1B009771F780915E02882309F440C00A
:1018000010925E028FEF89838E010F5F1F4F87EC6E
:10181000E82E84E1F82E63ED74E3C8010E94AC1B4E
:10182000009771F1DC011E962C911E9723FFF3CFD8
:10183000F894FC012685277F268778949C01265EF4
:101840003F4F3F932F9350968C9186958695869522
:101850001F928F9389811F928F93FF92EF920E9424
:10186000983FEDB7FEB738960FB6F894FEBF0FBE9F
:10187000EDBF63ED74E3C8010E94AC1B009791F6C5
:1018800080915C02882309F44BC010925C028FEFB8
:1018900089838E010F5F1F4FBBEBEB2EB4E1FB2E54
:1018A00068E37AE2C8010E94AC1BFC01892BC1F1FC
:1018B000848D80FFF5CFF89494812581368147810E
:1018C000548965897689A789B08DD18CC28CB38CF7
:1018D000848D8E7F848F7894BF92CF92DF92BF9356
:1018E000AF937F936F935F934F933F932F939F9308
:1018F00089811F928F93FF92EF920E94983F2DB79C
:101900003EB7205F3F4F0FB6F8943EBF0FBE2DBFCE
:1019100068E37AE2C8010E94AC1BFC01892B41F606
:1019200080915D02882309F456C010925D028FEF0A
:101930008B87AE01455F5F4F1A01FCE09F2EA7E049
:101940008A2E68EE7BE2C1010E94AC1B5C01892BF0
:1019500009F441C0D50159968C91599780FFF1CF78
:10196000F894F5014480558066807780818D8E7F64
:10197000818F789458968C91813009F4F1C308F4E2
:10198000CFC3823009F41BC48330D9F6CB841982CB
:101990001A829E012F5F3F4F42E061E0F50184898A
:1019A00095890E94382E09811A8110270127102756
:1019B000F02FF670EF2E20E030E0B301A201C50158
:1019C0000E945C2C68EE7BE2C1010E94AC1B5C01B2
:1019D000892B09F0BFCF809160028823F9F0109223
:1019E00060028FEF8B878E01055F1F4F180149E062
:1019F000B42E0A50110952EFC52EDD24DA9406C028
:101A0000D7011E968C911E9780FD19C468E17BE377
:101A1000C1010E94AC1B7C01892B91F7809161026E
:101A2000882329F1109261028FEF8F87FE01319692
:101A30004F012E01F7E04F0E511CE8EA6E2EF7E041
:101A40003F2EAFEA2A2E5E0108E0A00EB11C06C0B0
:101A5000D7011F968C911F9780FD68C466E47CE3D4
:101A6000CE010F960E94AC1B7C01892B89F78091D7
:101A700062028823D1F0109262028FEF8D87FE01FF
:101A80003D966F0162E7962E74E7B72E06C0D70128
:101A900052968C91529780FDAAC469EF7AE3C601F1
:101AA0000E94AC1B7C01892B91F780915602882300
:101AB000D9F0109256028FEF8D878E01035F1F4F72
:101AC000680130E7932E42E7B42E06C0D701529644
:101AD0008C91529780FD33C564E874E2C6010E9480
:101AE000AC1B7C01892B91F7809157028823C9F0A8
:101AF000109257028FEF89838E010F5F1F4FCC2406
:101B0000C394D12C06C0D70119968C9119978111D5
:101B10007CC56EEE75E2C8010E94AC1B7C01892B6E
:101B200091F7809158028823B9F0109258028FEFF4
:101B30008B878E01055F1F4F180106C0D801519693
:101B40008C9151978111B9C467E775E2C1010E9478
:101B5000AC1B8C01892B91F780915902882309F4E1
:101B600093C0109259028FEF8B878E01055F1F4F34
:101B7000180165E674E2C1010E94AC1B8C01892B3F
:101B800009F482C0D8011E968C911E9780FFF1CF78
:101B9000BB84AE014F5F5F4F68E11C968D919C91B5
:101BA0001D970E948F3A89819A8198278927F894F6
:101BB000F80196859E7F9687789483FFDACFC38855
:101BC000D12C7601B4E1EB0EF11CE00EF11EA70161
:101BD00060E0848595850E948F3AA7014E5F5F4F34
:101BE00061E0D8011C968D919C911D970E948F3ABF
:101BF000F80183898C5F838B4801FCE48F0E911C74
:101C0000D401AC90A2FE36C0F7012181828190E020
:101C1000A0E0B0E0BA2FA92F982F8827A22B23810C
:101C2000822BF801EC0DFD1D24896C017D01F22A47
:101C3000C114D104E104F0E1FF0608F008C60E94D7
:101C40007B29A1FE02C00C942816F801E15BFF4F2E
:101C500040805180628073804C145D046E047F0468
:101C600010F40C943A168A2D8D7FF4018083D801EC
:101C700053968C9190E0C0970CF47BCF6B2DC801EC
:101C80000F960E94E73875CF80915F02882309F490
:101C90007FC010925F028FEF8B87FE013B961F0182
:101CA00077247A948E010F5F1F4F198B088B9E014A
:101CB0002A5F3F4F3B8B2A8BAE01475F5F4F5D8BA7
:101CC0004C8B8DE1482E25E0622E33E0532E66EDDD
:101CD00079E3C1010E94AC1B6C01892B09F458C047
:101CE000D6011E968C9182FFF2CFF894F6014481C2
:101CF000558166817781F1881686118A789480856E
:101D00009185A285B3858A019B01081B190B2A0BBB
:101D10003B0B0E8B1F8B288F398F86010E5E1F4F5A
:101D2000D601FF2089F056968C91F601E80FF11D3F
:101D3000778A108E118E8D5FF601868B813310F5B8
:101D4000FA94D601F110EFCF1F961C91112309F4DC
:101D500074C1113009F4ACC1123009F4CAC5133092
:101D600009F459C6143009F49CC6D60156968C91D4
:101D700090E0C1970CF4ABCF6B85C60142960E94F0
:101D8000E738A1CF6B85C8010E94E738FA94D9CF14
:101D9000A89580917E02882329F080E480936000DA
:101DA00010927E0210913F03112309F46EC000913E
:101DB000300200FD12C0153008F467C0D0907F02D9
:101DC000BD2C8BEF8D0D8C3308F40FC5EEE7BE16DE
:101DD00009F4ACC7016000933002412F50E06EE778
:101DE00070E08FE792E00E94114E009739F00E7F6D
:101DF000009330028F57924011E0180F01FD0CC084
:101E0000902F92609093300280E497E09F938F939D
:101E10000E94983F0F900F90D12ECC24CA9420E0BE
:101E20000D2D10E019C0822F90E04E2D50E0481B80
:101E3000590BB801680F791F61587D4F81589D4F2C
:101E40000E94274E109226022E2D8FB7F894909163
:101E50003F03F91661F08FBFF0903F03EF2CED18B0
:101E600011F78FB7F89490913F03F912F4CFE092F5
:101E70003F038FBFF1E0CF1208C080E497E09F934B
:101E80008F930E94983F0F900F900E947B296B01C7
:101E90007C010A8D1B8D2C8D3D8D601B710B820B7F
:101EA000930B8090390290903A02A0903B02B09040
:101EB0003C021FEF811A910AA10AB10A80923902ED
:101EC00090923A02A0923B02B0923C0240903502BE
:101ED000509036026090370270903802460E571EBE
:101EE000681E791E40923502509236026092370287
:101EF000709238026115710521E08207910508F0A2
:101F000044C49B01AC010E94D64CDC01CB01815042
:101F10009F4FAF4FBF4F892F9A2FAB2FBB274091B9
:101F20003102509132026091330270913402840F79
:101F3000951FA61FB71F84179507A607B70718F4A4
:101F40008FEF9FEFDC018093310290933202A093D8
:101F50003302B093340240914F025091500260918D
:101F600051027091520297018601041B150B260B3A
:101F7000370BB901A8014115544B644C744008F467
:101F800072CBBF93AF939F938F937F926F925F9229
:101F90004F92BF92AF929F928F9285E195E19F936E
:101FA0008F930E94983F2DB73EB7225F3F4F0FB6E9
:101FB000F8943EBF0FBE2DBF80914F02909150020A
:101FC000A0915102B0915202C816D906EA06FB064A
:101FD00098F480914B0290914C02A0914D02B091E7
:101FE0004E020196A11DB11D80934B0290934C02AD
:101FF000A0934D02B0934E02C0924F02D092500275
:10200000E0925102F092520210923102109232028A
:10201000109233021092340210923502109236025E
:1020200010923702109238021092390210923A023E
:1020300010923B0210923C0216CB82E389831A82F3
:102040000E947B294B015C019E012F5F3F4F42E0C4
:1020500061E0F601848595850E94382E0E947B29D7
:10206000DC01CB0188199909AA09BB098132934087
:10207000A105B10508F046C0898187FD73C32A8197
:10208000E22EF12C9701220F331FE82EF12CC7010D
:10209000982F8827990F7901E82AF92A9501840158
:1020A0004E895F89688D798DC6010E94423A5DCE66
:1020B0008FE789838EEF8A830E947B296E8F7F8FC3
:1020C00088A399A39E012F5F3F4F42E060E0D601B5
:1020D0001C968D919C911D970E94382E0E947B2901
:1020E0004B015C01DC01CB010E8D1F8D28A139A1B4
:1020F000801B910BA20BB30B81329340A105B1055C
:1021000008F4B3C3D60156968C91F601E80FF11D81
:10211000778A92E0908F118E8D5FF601868B25CEA7
:10212000CB8419821A821B821C829E012F5F3F4F33
:1021300044E061E0F501848995890E94382E698127
:102140007A818B819C810E94E64CF62FF770EF2EEE
:102150008B019C01B301A201C5010E945C2CF1CB53
:102160000B850E8B99821A821B821C829E012F5F27
:102170003F4F44E061E0848995890E94382E69814F
:102180007A818B819C810E94E64C6B017C01BFE0CF
:10219000B9831A829E012F5F3F4F42E061E0F50153
:1021A000848995890E94382E970186013327CE882D
:1021B000EA80B301A201C5010E945C2CC2CBCB8492
:1021C00081E089831A821B821C829E012F5F3F4F10
:1021D00043E061E0848995890E94382E69817A8183
:1021E0008B819C810E94E64CBB27A92F982F872FBB
:1021F0008C019D01222733270E8B1F8B288F398F4F
:1022000089821A829E012F5F3F4F42E061E0D50133
:1022100054968D919C9155970E94382E8A81982FC3
:102220009C7F8E898170E92EE82A0E891F89288D6E
:10223000398DB301A201C5010E945C2C82CBAB8415
:10224000F8012B2D11922A95E9F7C982980149E0EE
:1022500061E01C968D919C911D970E94382ED701AC
:1022600053968C9190E0FC017496EE0DFF1D3B811E
:10227000232F207FE1F0203FD1F0D482D382D2827D
:10228000D182F701E80FF91FD48AF70183898B5FA8
:10229000838B8F3208F017C3D7011E968C911E973F
:1022A0008E7F1E968C93C7010E94DA3CAFCB2D81A6
:1022B000422F407F09F0C7C25F81452F407F11F058
:1022C000403FD9F648854039C1F649854F77942E6D
:1022D000B0E2B41790F2D701A80FB91F4A81549603
:1022E0004C938C8181838E818283852F90E03F7116
:1022F000AC01440F551F42955295507F5427407FA3
:102300005427342B3383880F991F880F991F8076A9
:102310002F71822B8483D70153968C9153978B5FB7
:1023200053968C938F3208F4D4C2CEC27F845596D4
:102330008C91C82ED12CB6E1CB0ED11CCE0CDF1C5B
:10234000F7019685911143C2D401E32D1D92EA95C0
:10235000E9F72B861C866982D70150968C918130D3
:1023600009F448C4940147E061E0F701848595854C
:102370000E94382E9E01255F3F4F42E061E0D70169
:102380001C968D919C911D970E94382EF701808993
:102390001C85012F813009F4E5C30F731074FE0111
:1023A0003296D60181918D93EA15FB05D9F7D701B5
:1023B00055968C9155978A5F55968C938E3208F07E
:1023C000AEC3112331F0F701838994890196948B70
:1023D000838B002309F403C2D7011F968C911F97AA
:1023E0008E7F1F968C93C7010E948E3C37CBAD84A5
:1023F00050968D919C915197C09770F1B982870149
:10240000085E1F4F20E3AE014F5F5F4F61E0F701B1
:10241000848595850E9490200E94D01B80E3D7017F
:1024200057968C93579750968D919C915197C09742
:1024300051969C938E9350976A2DC70143960E94A4
:10244000E738F70180899189C09778F110922602C8
:1024500081E08093620221CBD7011C968D919C91E3
:102460001D979B868E010F5F1F4F22E0AE01455FD7
:102470005F4F61E00E9490200E94D01B89818F7184
:1024800090E0982F88272A81822BF70126853785AF
:102490002817390710F497878687D70151969C93A0
:1024A0008E935097C0970CF0A9CFF70182898E7F49
:1024B000828BC7010E942527F0CABB8419821A8229
:1024C0001B829E012F5F3F4F43E061E01F968D917D
:1024D0009C9150970E94382EF801118A8981CA80F8
:1024E000D12CE12CF12CFE2CED2CDC2CCC24E82A78
:1024F0008B81C82AE7FE02C0FF24FA94F801E55B4D
:10250000FF4F80819181009721F0B701A6010E94C1
:102510009B49D80157968C91F801E80FF11DC08EA8
:10252000D18EE28EF38E8C5FF801878B803308F4B6
:102530000BCB6B2DC80143960E94E73805CBAD84C9
:1025400050968D919C915197C09770F1B9828701F7
:10255000085E1F4F20E3AE014F5F5F4F61E0F70160
:10256000848595850E9490200E94D01B80E3D7012E
:1025700057968C93579750968D919C915197C097F1
:1025800051969C938E9350976A2DC70143960E9453
:10259000E738F70180899189C09778F11092260277
:1025A00081E08093560298CAD7011C968D919C9128
:1025B0001D979B868E010F5F1F4F22E0AE01455F86
:1025C0005F4F61E00E9490200E94D01B89818F7133
:1025D00090E0982F88272A81822BF701268537855E
:1025E0002817390710F497878687D70151969C934F
:1025F0008E935097C0970CF0A9CFF70182898E7FF8
:10260000828BC7010E94252767CAB9801896AC90B3
:1026100018972A2D30E052960D90BC91A02DF7010D
:102620009488458856889789295E3F4F40E050E05E
:10263000BA016B2CF201792C5A2CF894908300008B
:10264000000090838C917894440F551F661F771F6C
:102650008721812C912C54018394811103C0812CFA
:10266000912C5401482959296A297B292150310983
:1026700020F7B62CA52CF894D70119962C91199710
:1026800019961C9278942A013B010A2C04C0769476
:102690006794579447940A94D2F767FE02C0772450
:1026A0007A94C60101C0880FAA94EAF7815090E09D
:1026B000A0E0B0E0482359236A237B2384179507C1
:1026C000A607B70709F431C220E030E040E050E847
:1026D000D7011E962D933D934D935C93519740E8FF
:1026E00030E020E090E0D7015C968C91F701E80F94
:1026F000F11D958F268F378F40A38C5FF701848F54
:10270000803308F406CA6B2DC70148960E94E7384B
:1027100000CA318D308F7894AC01415F5F4F5F9379
:102720004F931F922F93FC0187891F928F9389816A
:102730001F928F93FF92EF920E94983F2DB73EB762
:10274000265F3F4F0FB6F8943EBF0FBE2DBF3AC86D
:102750002A893B89E217F30709F0CFC19E819817B8
:1027600009F464C2D60156968C91F601E80FF11D6A
:10277000778A508E118E8D5FF601868BF6CACA8ECF
:10278000DB8EEC8EFD8E0C945D0B6115710530E1D6
:102790008307910508F0D4CB8B019C0101501F4F9A
:1027A0002F4F3F4F5527432F322F212F0E94D64CBA
:1027B000DC01CB0140913102509132026091330231
:1027C00070913402840F951FA61FB71FB4CB9130B0
:1027D00009F4D7C18A5F858B8E3208F09EC11092B2
:1027E0002602F1E0F093610239C9C09080028C2D7D
:1027F000807F803109F0EACA1D1508F446CB8D2D83
:1028000090E0FC01E258FD4F20812E3709F0DECA2E
:10281000FC01E458FD4F1F01FC01E358FD4F90817E
:10282000D1018C91292F30E07901F82A6DEF6D0DDF
:102830008FE792E00E949129E816F90609F478C220
:10284000B0907F02C3CA403F09F017CD35CDD40107
:102850001C92F801E25BFF4F608134978081918187
:102860000E94FE3EF801838905CA80EC89831A82A2
:102870009E012F5F3F4F42E061E0D6011C968D9193
:102880009C911D970E94382E2981EA80922F9E25C7
:10289000892F82958F709827892F8695869589270D
:1028A000982F9695892780FDB5C126FF09C2F601AC
:1028B0008689E80FF11D778A608E118E8D5FD601B3
:1028C00056968C9352CA912C6A2DC7010F960E947E
:1028D000E738BEE1B91508F064C3F7018189928930
:1028E0000196928B818B1092260281E08093600288
:1028F0008DC8D6011C96ED91FC911D971481F28034
:10290000038140E06F2D702F812F0E94A5300E941F
:102910007B294B015C01B0E18B0E911CA11CB11C09
:102920000E947B292B2D86169706A806290B27FFC8
:10293000F7CFF89441E06F2D702F812F0E94A530C2
:102940000E947B294B015C0178948AE0E889F9892F
:1029500011928A95E9F784E8898383E28A839E014C
:102960002F5F3F4F4AE061E0D6011C968D919C910C
:102970001D970E94382EFE01339685E0919189279C
:1029800028E030E004C0880F2150310939F087FF7A
:10299000FACF880F842521503109C9F70C891D8988
:1029A000E017F10759F7809590E02A8530E082170B
:1029B000930709F0D7CE898584FF66C08B8187FD98
:1029C0008AC1D60156968C91F601E80FF11D778ADF
:1029D00094E0A0CB54896589908921893289438903
:1029E0008F5F858F78946F935F934F933F932F936F
:1029F0009F9389811F928F93FF92EF920E94983F3D
:102A00004DB75EB7465F5F4F0FB6F8945EBF0FBE1F
:102A10004DBF0C94B70B83E889831A821B820E94F6
:102A20007B294B015C019E012F5F3F4F43E061E03A
:102A3000D6011C968D919C911D970E94382E0E9464
:102A40007B299B01AC01281939094A095B09490115
:102A50005A0131E2831633E09306A104B10408F071
:102A600051CB3A812B81532F5227452F42954F70DE
:102A70005427452F469546955427452F469545277B
:102A800040FDBBC021FF0BC1D60156968C91F601CB
:102A9000E80FF11D778A608E118E8D5FF601868BAF
:102AA00064C986E0EAE2F2E0DE01119601900D923F
:102AB0008A95E1F70E947B294B015C019E012F5F03
:102AC0003F4F46E061E0D6011C968D919C911D9789
:102AD0000E94382E0E947B29AB01BC01DB01CA0198
:102AE00088199909AA09BB0981329340A105B1054A
:102AF00008F008CBFE01339680E09191892728E009
:102B000030E005C0880F2150310909F421CE87FF3C
:102B1000F9CF880F07E08027F6CF00E010E0672D9F
:102B2000C70141960E94E7384CCC21FD1DC0F7013A
:102B30004685578560897189411551056105710583
:102B400009F02AC2F701E05BFF4F80819181009775
:102B500021F0B301A2010E949B49942D252D362D11
:102B6000472DC1CD00721ACC20E030E040E050E4A7
:102B7000D7011E962D933D934D935C93519740E45E
:102B8000AFCDF8E2FE87D70150968C91813009F4E1
:102B900084C0BFE2BD87840126E0AE01425F5F4F83
:102BA00061E0F701848595850E9490200E94D01BEA
:102BB0008E01055F1F4F21E0AE01435F5F4F61E073
:102BC000D7011C968D919C911D970E9490200E9488
:102BD000D01BF70180891B85012F813009F45BC070
:102BE0000F731074D401F6018D918193A415B5056E
:102BF000D9F7DDCBB8EEB983B5CBD60156968C911B
:102C0000F601E80FF11D778A108F118E8D5FF601A6
:102C1000868BABC8F6018689E80FF11D778A508E46
:102C2000118E8D5FD60156968C939FC88D8181FD44
:102C30002BCFEB80FC80FE24EF24FE248A019B0135
:102C40004E895F89688D798DC6010E94423A8DC890
:102C5000F801ED5AFF4F4080518062807380292F28
:102C6000641575058605270927FD02C00C94250EFD
:102C70000C94370EF801ED5AFF4F60837183828305
:102C80009383369760813397808191810E94FE3EC5
:102C900080E00C94350E0072A4CF6E867ACF432F5D
:102CA00050E0542F44272C7F7A01E22A8B019C01AB
:102CB0004E895F89688D798DC6010E94423A55C858
:102CC000822F90E0982F8827990F990FB4E0EB9E00
:102CD00070011124E1C90E891F89288D398D801A50
:102CE000910AA20AB30A11E5811615E59106A1041D
:102CF000B10408F042C12C8130E0220F331F90E074
:102D0000982F8827990F822B932BD60156963C91AA
:102D1000F601E30FF11D2F8126952F73278B808FEE
:102D2000918F3D5FF601368B0C94B50E11E074C89F
:102D3000802F8D7F8093300280910802C81229C1B4
:102D400081E08C0D8F70806180930802B1E82B16B2
:102D5000B2E03B0609F008F4FAC001E812E08EE3A5
:102D6000E82E87E0F82E99E0C92E8DB69EB6D801E0
:102D70002C9127FDB4C00F5F1F4F30E021153105A6
:102D800009F404C1F701859194912817390708F0D7
:102D9000FDC0A901440F551F440F551F440F551F77
:102DA000420F531FFA01E157FC4FE4918DB79EB7D4
:102DB000A4E0EA9F8019910911240FB6F8949EBFF0
:102DC0000FBE8DBF0196FA01EF56FC4F6491FA01D8
:102DD000EE56FC4F45915491FA01460F511DBA0130
:102DE000AC019F8A8E8A9F8F8E8F6E177F0709F4A2
:102DF00088C02016310608F46FC0A491A53028F1D0
:102E0000A73009F069C02801BFEF4B1A5B0AD8014F
:102E10006C908201060D111D2016310608F45CC06D
:102E2000712C812C912CDA016D927D928D929C9265
:102E30001397612C712C14964D925D926D927C9239
:102E40001797485F5F4F3196D0CF5A0184E0A80EA4
:102E5000B11C48019FEF891A990AD8011C91912F42
:102E60009F77492E512C612C712C012F0076003652
:102E700009F440C017FF6FC084010F5F1F4FD801D6
:102E800011978C91440C551C661C771C440C551CE6
:102E9000661C771C440C551C661C771C440C551C86
:102EA000661C771C440C551C661C771C440C551C76
:102EB000661C771C440C551C661C771C982F9F774A
:102EC000492A87FDDACFDA014D925D926D927C92AC
:102ED0001397A501319689CF87E00E9494492F77F7
:102EE000B0E82B9F90011124F8018181282B0E5FFF
:102EF0001F4F44CFB0EE4B2A55245A94652C762CA4
:102F0000B9CF8E889F888E8D9F8D40912802442353
:102F100051F0C29EF001C39EF00D1124E057FC4F0A
:102F2000E491E0FF1AC0C29EF001C39EF00D11248F
:102F3000EC56FC4F25913491F90119950FB6F89490
:102F40009EBE0FBE8DBE0215130508F40ECFCC2415
:102F5000C3940C940F0F8401B6CF809129021F9265
:102F60008F93E7E2F5E1FF93EF930E94983F0FB64E
:102F7000F8949EBE0FBE8DBEE6CFD60156968C91BC
:102F8000F601E80FF11D778A91E0C4C885E00E9440
:102F900094491D2D0C94040F942F252F362F472F65
:102FA000A2CBF1E0F91508F49ECC76C9FC0164814E
:102FB00080810C9423280F931F93CF93DF938C0170
:102FC0004DE250E06BED77E1FC0180810E949D3184
:102FD000EC01F801848518160CF041C084E08CA740
:102FE00064E084810E9423286A8F7B8F8C8F60E04D
:102FF000F80180850E9423286D8F7E8F8F8F80E05F
:1030000090E0A0E0B0EC88A399A3AAA3BBA3F80129
:1030100080899189A289B3898E8B9F8BA88FB98F64
:103020006BE070E0CE0184960E942E328E899F89DB
:10303000A88DB98D8997A105B10548F080E79AE17F
:103040009B838A83DF91CF911F910F9108958CA567
:1030500080638CA7DF91CF911F910F91089581110B
:1030600004C06CA56470F801BCCF80E18CA760E05F
:10307000F80184810E9423286A8F7B8F8C8F60E007
:10308000F80180850E9423286D8F7E8F8F8F80E0CE
:1030900090E0A0E0B0EC88A399A3AAA3BBA3F80199
:1030A00080899189A289B3898E8B9F8BA88FB98FD4
:1030B0006BE070E0CE0184960E942E32BFCF8F92DB
:1030C0009F92AF92BF92FF920F931F93CF93DF9384
:1030D0008C0160E776E4FC0180810E94CC31EC0138
:1030E0000E94DD468F8D98A1892B09F058C0F80108
:1030F00004811BA1FF24F394002339F16C897D899D
:103100008E894F2D0E94A53021E001111CC014FBB7
:10311000882780F991E08927281741F08F89988DB9
:10312000A98DBA8D892B8A2B8B2B89F410711F29BD
:103130001BA3DF91CF911F910F91FF90BF90AF9094
:103140009F908F90089520E0E2CFF12CD7CF0E947E
:103150007B298F88988CA98CBA8CDC01CB01880DD7
:10316000991DAA1DBB1D888B998BAA8BBB8B8C8349
:103170009D83AE83BF838AE49EE19B838A83107123
:1031800014601F291BA3CE01DF91CF911F910F91D6
:10319000FF90BF90AF909F908F900C942F4782E14B
:1031A0000E9494494F925F926F927F928F929F926A
:1031B000AF92BF92CF92DF92EF92FF920F931F9345
:1031C000CF93DF93FC01A4A1B5A11097B1F41686AB
:1031D0001786108A118A80E0DF91CF911F910F919D
:1031E000FF90EF90DF90CF90BF90AF909F908F9027
:1031F0007F906F905F904F9008958D919C91119763
:1032000095A384A31296CD90DD90ED90FC90159738
:1032100018968D919C91199716962D913C91179720
:103220001A964C911A97609154027091550211961A
:103230007C936E93B0935502A0935402A42FA17077
:1032400040FD3AC040A151A162A173A12C01612CA3
:10325000712C440D551D661D771D40A351A362A31B
:1032600073A335872487A901032E000C660B770B07
:103270004C0D5D1D6E1D7F1D4087518762877387D2
:1032800094A595FF2BC04481558166817781C40E3A
:10329000D51EE61EF71EC482D582E682F7824686D8
:1032A0005786608A718A232B09F46EC0906494A7B4
:1032B000A1110EC081E090CF40A151A162A173A1E4
:1032C00070956095509541955F4F6F4F7F4FBECF82
:1032D000A58DB68D878D8C9381E07ECF46855785F1
:1032E0006089718984809580A680B780028913895E
:1032F00024893589C00ED11EE21EF31EC28AD38AEC
:10330000E48AF58AC482D582E682F782892F8071A9
:1033100094FD04C0440C551C661C771C46865786D9
:10332000608A718A452B462B472B11F2EF019F2DA6
:10333000C814D904EA049B0997FD32C0AA2309F4F2
:10334000B9CF811123C0ED8DFE8D8F8D80830E94BA
:103350007B290E891F89288D398DDC01CB01800FD7
:10336000911FA21FB31FCC80DD80EE80FF802F2D28
:10337000C816D906EA062B0B27FF9CCF8C839D83AA
:10338000AE83BF8381E028CF9F7B91CF0E947B29B2
:10339000292F681579058A052B0927FDF7CFD3CF8B
:1033A000C818D908EA08FB0890E8C91691ECD906B4
:1033B0009FEFE906F9062CF084829582A682B782F7
:1033C000BDCF88E10E9494490F931F93CF93DF9361
:1033D0008C016BED77E1DC018C910E94CC31EC012A
:1033E0000E944832FC01D80114964D915D916D9177
:1033F0007C911797428353836483758318968D91CC
:103400009C91199791878087892B09F466C0D80110
:103410001C968D919C911D97978386831286F894B4
:103420008CA5282F217081FB992790F9291729F065
:1034300091E089279285916092874E855F856889A2
:103440007989452B462B472B59F583FD19C08CA74D
:10345000118210828CA19DA1892BA9F1AEA1BFA1DF
:10346000ED93FC93FFA3EEA3CE010E94D218CE01F0
:103470000E942F477894DF91CF911F910F9108956B
:10348000809154029091550291838083F09355026C
:10349000E09354027894DF91CF911F910F9108959A
:1034A0008CA7118210828CA19DA1892B89F0AEA1DD
:1034B000BFA1ED93FC93FFA3EEA37894DF91CF918E
:1034C0001F910F910895FFA3EEA3FDA3ECA3CCCF12
:1034D000FFA3EEA3FDA3ECA3CDCF87E10E94944907
:1034E0008F929F92AF92BF92CF92DF92EF92FF9214
:1034F0000F931F93CF93DF93EC01EA8DFB8D8C8D9F
:1035000080830E947B290E891F89288D398DAB010C
:10351000BC01400F511F621F731F8E859F85A889B4
:10352000B9890197A109B10980FF19C02CA524FD13
:103530001AC08E879F87A88BB98B4C835D836E835F
:103540007F8381E0DF91CF911F910F91FF90EF90EA
:10355000DF90CF90BF90AF909F908F90089500978D
:10356000A105B10571F1C884D984EA84FB840A8974
:103570001B892C893D890C0D1D1D2E1D3F1D0A8B9D
:103580001B8B2C8B3D8BEC85FD854F01FF0FAA0813
:10359000BB08C80CD91CEA1CFB1CC886D986EA8665
:1035A000FB86E32F041715072607E70BE7FDC1CFBE
:1035B0008E879F87A88BB98B0C831D832E833F83B7
:1035C000C0CF4C835D836E837F83CE01DF91CF912B
:1035D0001F910F91FF90EF90DF90CF90BF90AF9031
:1035E0009F908F900C94D218809145029091460242
:1035F0009F938F9321E030912802311101C020E088
:103600001F922F9320914A022F93209149022F93CA
:10361000209148022F93209147022F9321E0892B7C
:1036200009F420E01F922F9383E095E19F938F93FD
:103630000E94983F8DB79EB70C960FB6F8949EBF28
:103640000FBE8DBF08950E947B299F938F937F9318
:103650006F9389E095E19F938F930E94983F0F901D
:103660000F900F900F900F900F9008950F931F934E
:10367000CF93DF938C018091450290914602892B74
:1036800009F04BC06091440270E0623071052CF487
:1036900082E08093440262E070E0E0914002F091A9
:1036A00041024DB75EB741505F4F44275A959F0185
:1036B000C0E0D0E0C901860F971F4817590730F1C5
:1036C00021969C01C115A4E0DA07A1F78E1B9F0B80
:1036D0000E94753FD0934602C093450290934302E7
:1036E000809342020E94E431F80180819181A2819D
:1036F000B3818093470290934802A0934902B0930C
:103700004A02DF91CF911F910F910895209711F0F8
:10371000C901DCCF80E10E9494498DE00E94944968
:10372000CF9320913E0230913F02232B91F4FC0174
:10373000C0818C2F90E0880F991F880F991F0E94DD
:10374000753F90933F0280933E02C0933D02CF911C
:1037500008958AE00E949449CF93DF93EC01988109
:1037600040913D02A0913E02B0913F020BC0FD018D
:1037700084E0989FE00DF11D1124208131812617EE
:10378000370741F09F5F941790F380E090E0DF915E
:10379000CF910895988382819381DF91CF9108958D
:1037A0008230910589F05CF08330910529F004970F
:1037B00071F48DE10E9494498EE10E949449019731
:1037C00039F48FE10E9494498CE10E949449089554
:1037D000089580912802882329F0823011F01092F8
:1037E0002802089582E00E94944988E00E9494494A
:1037F000CF92DF92EF92FF92FC0140815181628172
:1038000073812481E8E5F4E185919591A591B491C6
:10381000481759076A077B0770F56A017B01C20EDA
:10382000D11CE11CF11C8C159D05AE05BF0500F5F2
:10383000841B90E09A012A5B384F3F932F939F930C
:103840008F937F936F935F934F938BE195E19F935A
:103850008F930E94983F8DB79EB70A960FB6F89443
:103860009EBF0FBE8DBFFF90EF90DF90CF90089569
:10387000822F90E0DFCF80E090E0DCCFCF92DF922C
:10388000EF92FF920F931F930E947B299F938F9338
:103890007F936F9301E010E020E030E0C0904F0292
:1038A000D0905002E0905102F09052026C157D05CC
:1038B0008E059F0518F000E010E0980180914B0202
:1038C00090914C02A0914D02B0914E02800F911F39
:1038D000A21FB31FBF93AF939F938F938FE095E188
:1038E0009F938F930E94983F8DB79EB70A960FB60D
:1038F000F8949EBF0FBE8DBF1F910F91FF90EF9068
:10390000DF90CF9008958EE00E949449CF93DF938B
:10391000EC016A8D662309F453C0FC0150E031E0EC
:1039200020E0A38DB48D4C91958D942309F0532BF9
:103930002F5F330F33962613F4CF2C85922F9527C4
:1039400029F08D85852780959823D9F4888D5D870A
:1039500087FD03C0815070F1888F4C815D816E813D
:103960007F8188859985AA85BB85840F951FA61FB1
:10397000B71F8C839D83AE83BF8381E0DF91CF919E
:103980000895982F909529238523822B8C879E85D7
:103990009830E0F621E0290F2E87FE01E90FF11D96
:1039A00087871092260281E0809353028FEF888FE1
:1039B0005D87D3CF1092260291E090935302CCCF33
:1039C00050E0BBCF0F931F93CF93DF938C016EE03A
:1039D0007DE1DC018C910E94CC31FC01D801149670
:1039E0009C91828D9817B8F4292F30E0E901CC0F13
:1039F000DD1F2C0F3D1FEF01C20FD31FF80164859F
:103A000080850E946C306B8F7C8F8D8FDF91CF9182
:103A10001F910F91089583E20E949449CF93FC0176
:103A2000C481C930B8F44C2F50E09A01220F331FE3
:103A3000420F531F455E5F4F6EE07DE1FC018081C8
:103A40000E949D31FC01C28F26E83CE13383228332
:103A5000CF91089584E20E949449FC0144815581EC
:103A600066817781208580810C945C32EF92FF9291
:103A70000F931F93CF93DF937C0160EB7DE1DC011B
:103A80008C910E94CC318C010E944832EC01F701EC
:103A900084819581A681B7818A839B83AC83BD8312
:103AA000808591859F838E83F89419821882D8012E
:103AB00051968D919C915297892BB9F15396ED9126
:103AC000FC915497D183C0835496DC93CE93539743
:103AD00080E090E07894892B39F4DF91CF911F91A9
:103AE0000F91FF90EF900895C8010E94DD46D80124
:103AF00012968D919C91139788519042F1F08A8192
:103B00009B81AC81BD8123E93FE1F80133832283AE
:103B100084839583A683B783C801DF91CF911F91DA
:103B20000F91FF90EF900C942F47F801D48BC38B2B
:103B3000D28BC18B81E090E0CDCF8A819B81AC811B
:103B4000BD81F8014481558166817781272F48170F
:103B500059076A072B0B27FFD6CF80E20E949449B2
:103B6000CF92DF92EF92CF93DF93EC014885598596
:103B70006A857B852C858C810E945C326B01E82EE6
:103B800045E150E060EB7DE188810E949D31FC01C0
:103B9000C086D186E28688899989908B87878C89AF
:103BA0009D89AE89BF8983879487A587B68783E976
:103BB0009FE19383828368E070E0CF014196DF91BB
:103BC000CF91EF90DF90CF900C942E320F931F93F4
:103BD000FC01A489B58986898C9393A181E089270A
:103BE00083A3448155816681778180FF12C000855F
:103BF000118522853385400F511F621F731F82FD7F
:103C000012C0448355836683778381E01F910F91AF
:103C100008950485158526853785400F511F621F3D
:103C2000731F82FFEECF0089118922893389872F84
:103C3000401751076207830B87FDE3CF8AE49EE1BB
:103C400093838283B901A801448355836683778374
:103C500081E01F910F9108950895FC018081A48156
:103C6000B58140855185628573859FB7F894813011
:103C700061F0823019F04C939FBF08954D935D938E
:103C80006D937C9313979FBF089511965C934E9309
:103C90009FBF08958F929F92AF92BF92CF92DF9273
:103CA000EF92FF921F93CF93DF93EC01EF8CF8A07C
:103CB000E114F10409F4F0C0F7018081918198A327
:103CC0008F8F86809780A084B18411E08114910445
:103CD000A104B10409F4A1C06C897D898E89412FAA
:103CE0000E94A5308091540290915502F701918372
:103CF0008083F0925502E092540281149104A10451
:103D0000B104E9F08B8D9C8DAD8DBE8D8816990622
:103D1000AA06BB06A0F44F89588D698D7A8D41158E
:103D200051056105710509F45BC08C819D81AE81EF
:103D3000BF81480F591F6A1F7B1F166022C08BA1CD
:103D400031E081149104A104B10409F068C084FB3E
:103D5000992790F921E09227391709F443C04F8938
:103D6000588D698D7A8D4115510561057105D1F127
:103D70008C819D81AE81BF81480F591F6A1F7B1FB7
:103D80001460EF8DF8A1309709F077C02BA1488B14
:103D9000598B6A8B7B8B2071212B2BA311FF5FC06A
:103DA000880D991DAA1DBB1D12FD52C026EE3DE1D6
:103DB0003B832A838C839D83AE83BF8388869986C9
:103DC000AA86BB868B8D9C8DAD8DBE8D8819990979
:103DD000AA09BB098C879D87AE87BF8781E011C088
:103DE00012608BA1EF8DF8A13097D9F4188A198A47
:103DF0001A8A1B8A8071812B8BA3812F827011FDFF
:103E000034C0DF91CF911F91FF90EF90DF90CF9062
:103E1000BF90AF909F908F90089510E05DCF30E0FD
:103E200096CF4281538164817581488B598B6A8B0F
:103E30007B8B8071912F9460892B8BA311FF0FC016
:103E40008C819D81AE81BF81880D991DAA1DBB1DEE
:103E50002B2F84179507A607270B27FDA7CF4C8389
:103E60005D836E837F8381E0CCCF40E050E0BA0178
:103E70008C819D81AE81BF8193CFC280D380E4804D
:103E8000F580872F4C155D056E058F0987FD07C0EE
:103E90008BA1B701A601C9CF85E10E94944983E1B6
:103EA0000E949449FC0185818F9384818F93808146
:103EB0001F928F938DEF94E19F938F930E94983F71
:103EC0000F900F900F900F900F900F900895DC01BE
:103ED0002C911496ED91FC9115973FB7F8942130F1
:103EE000E9F02230B1F0808190E0A0E0B0E03FBF87
:103EF000BF93AF939F938F9387EF94E19F938F939B
:103F00000E94983F0F900F900F900F900F900F907E
:103F1000089580819181A281B381E9CF80819181CF
:103F2000A0E0B0E0E4CF0F931F93CF93DF93FC01A9
:103F3000A189B2898D919C911197928B818B169654
:103F40008D919C911797C085D185228521113FC005
:103F50002FB7F894AC015527598348832FBF209180
:103F600054023091550211963C932E93B093550212
:103F7000A0935402A189B289109759F527853089F9
:103F80008217930741F083859485A585B6850097B0
:103F9000A105B10531F480E0DF91CF911F910F9120
:103FA00008954481558166817781840F951FA61FEE
:103FB000B71F84839583A683B78388E190E29383B8
:103FC000828381E0DF91CF911F910F9108958883C3
:103FD000C6CF12964D915D916D917C911597278575
:103FE00030898217930741F083859485A585B6852E
:103FF0000097A105B10551F4448355836683778307
:1040000081E0DF91CF911F910F9108950481158177
:1040100026813781800F911FA21FB31F2B2F84177A
:104020009507A607270B27FFE7CF80E20E94944958
:1040300081E20E949449BF92CF92DF92EF92FF9269
:104040000F931F93CF93DF93EC016DEA7DE288819C
:104050000E94CC31BC8008851985FC01228120FD9D
:104060003BC0FC01D0810E947B296B017C01F0E800
:10407000CF0EF8E3DF1EF1E0EF1EF11CC701B60121
:104080000E943F30D093BB0084E88093BC00C701FE
:10409000B6010E942330BB2079F0CB2DD4E8F80183
:1040A00081918F018093BB00D093BC00C701B60102
:1040B0000E942330C15099F784E98093BC0080E0CE
:1040C00090E0DF91CF911F910F91FF90EF90DF90E3
:1040D000CF90BF900C94D01BE080F180F7016485F5
:1040E000C7010E945D2D6C01892B79F4E801CB0D8D
:1040F000D11D08C0F80161918F01C7010E94EE2C0B
:10410000009741F4C017D107A9F7C7010E94CB2C33
:10411000C601D7CF6C01C7010E94CB2CC601D1CFFD
:104120004F925F926F927F928F929F92AF92BF92C7
:10413000CF92DF92EF92FF920F931F93CF93DF9373
:10414000462E542E652E722E7801FC01228120FD10
:104150007DC0FC01C0800E947B294B015C01F0E81E
:104160008F0EF8E39F1EF1E0AF1EB11CC501B40134
:104170000E943F30C092BB0084E88093BC00C50120
:10418000B4010E9423300FEF040D4420A9F0C52D87
:10419000D62D10E00F5F1F4F0C0F1D1F94E8D92E76
:1041A00089918093BB00D092BC00C501B4010E94EC
:1041B00023300C171D07A1F7C501B4010E943F3041
:1041C0008C2D81608093BB0084E88093BC00C50186
:1041D000B4010E942330DFEFD70D772009F187016A
:1041E000CD2F84ECD82ECC2369F0D092BC00C50131
:1041F000B4010E9423308091BB00F80181938F01AC
:10420000C15099F7C7018D0F911DEC0184E880938F
:10421000BC00C501B4010E9423308091BB0088839B
:1042200084E98093BC0080E090E0DF91CF911F9102
:104230000F91FF90EF90DF90CF90BF90AF909F9045
:104240008F907F906F905F904F900895C081D18143
:104250006623E9F06C85CE010E945D2D6C01892BEF
:1042600009F5052D162D4A94A42CB12CFFEFAF1A99
:10427000BF0AA00EB11EF80161918F01CE010E940C
:10428000EE2C6C01892B71F4A016B106A1F76C8598
:104290006160CE010E945D2D6C01892B41F024E00C
:1042A000C22ED12CCE010E94CB2CC601BECF8FEFE7
:1042B000870D7720B9F35701A80EB11C69857A855F
:1042C0008B8541E00E94563008E010E06D857E85C8
:1042D0008F8598890E94B12C6E817F81888541E00D
:1042E0000E9456306D857E858F8598890E94B12CFD
:1042F000110FE985FA8590818B85892391E009F476
:1043000090E0192B688179818A8140E00E94B43065
:104310000150E1F6EA14FB04D9F46D857E858F85A2
:1043200098890E94B12C6E817F81888541E00E942E
:1043300056306D857E858F8598890E94B12C688165
:1043400079818A8140E00E94B430F7011083AACFBE
:104350006B817C818D8140E00E94B4306D857E85CB
:104360008F8598890E94B12C6E817F81888541E07C
:104370000E9456306D857E858F8598890E94B12C6C
:10438000688179818A8140E00E94B430F7011193FD
:104390007F0194CFAF92BF92CF92DF92EF92FF92C4
:1043A0000F931F93CF93DF93CDB7DEB77C01ADB6EC
:1043B000BEB6FC01C0806DEA7DE28C2D0E94CC313E
:1043C000F701648140855185D4842DB73EB72D19FE
:1043D00031090FB6F8943EBF0FBE2DBFEDB7FEB743
:1043E00031967F018F012D2D0E9490200E94D01BBD
:1043F000FF92EF921F92DF921F92CF9283ED94E192
:104400009F938F930E94983F2DB73EB7285F3F4FF1
:104410000FB6F8943EBF0FBE2DBF0FB6F894BEBEC8
:104420000FBEADBEDF91CF911F910F91FF90EF9026
:10443000DF90CF90BF90AF900895FC01868580FFFC
:1044400006C0218932892F5F3F4F328B218B81FF3C
:104450000DC0DF01A95BBF4F0D90BC91A02D2C9129
:10446000DF01A75BBF4F9C91922339F4816086875F
:104470001092260281E08093590244815581668121
:10448000778180859185A285B385840F951FA61FAE
:10449000B71F84839583A683B78381E00895CF9364
:1044A000DF93FC0180859185A285B3852189222334
:1044B000F1F0258936892F5F3F4F368B258B880F8A
:1044C000991FAA1FBB1F880F991FAA1FBB1F4481DA
:1044D000558166817781840F951FA61FB71F84833E
:1044E0009583A683B78381E0DF91CF910895C4853A
:1044F000D58538812685232351F721E0218B109221
:10450000260220935802880F991FAA1FBB1F880FED
:10451000991FAA1FBB1F880F991FAA1FBB1FD7CFA8
:10452000CF93DF93FC0182859385A485B585218592
:1045300020FF20C0228D338D2F5F3F4F338F228F7E
:1045400023E02187880F991FAA1FBB1F880F991F7F
:10455000AA1FBB1F4481558166817781840F951FF7
:10456000A61FB71F84839583A683B78381E0DF915D
:10457000CF910895C289D38938812489232351F7A3
:1045800021E021871092260220935702880F991F5D
:10459000AA1FBB1F880F991FAA1FBB1F880F991F37
:1045A000AA1FBB1FD7CFFC0192899160928B1092FA
:1045B000260281E08093560280E008952F923F9278
:1045C0004F925F926F927F928F929F92AF92BF9223
:1045D000CF92DF92EF92FF920F931F93CF93DF93CF
:1045E0001F921F92CDB7DEB73C0165E674E2FC0175
:1045F00080810E94CC314C01FC01868581FF36C050
:10460000F8940E947B299B01AC01F401E95BFF4F08
:104610000190F081E02D9081F401E75BFF4F8081F4
:1046200089237894882309F448C0A12CB12C650112
:10463000E12CF12C8701F3016081C4010F960E94E7
:10464000A0380F900F90DF91CF911F910F91FF90A5
:10465000EF90DF90CF90BF90AF909F908F907F9022
:104660006F905F904F903F902F9008950E947B290C
:104670001B012C01AE014F5F5F4F68E1F40184859F
:1046800095850E948F3A09811A81102701270E947F
:104690007B2903FD0CC0A12CB12C65017B018C0191
:1046A000E218F30804091509A2019101C4CF24E01E
:1046B000A22EB12CC12CD12CF1CF64E0A62EB12CAE
:1046C000C12CD12CB5CF0F931F93CF93DF938C01C7
:1046D00065E674E2DC018C910E94CC31EC01F801BA
:1046E00080859185A285B385FE01E15BFF4F8083C4
:1046F0009183A283B383892B8A2B8B2B59F4359713
:1047000011821082C45BDF4F1882DF91CF911F911D
:104710000F910895F80184819581A681B781FE01EA
:10472000ED5AFF4F80839183A283B3836DEF7DE3C6
:10473000D8011C968C910E94CC31FE01E65BFF4FA4
:10474000918380833396D80150968C9150978083C3
:10475000319654968C918083C45BDF4F86E08883CA
:10476000DF91CF911F910F9108959F92AF92BF92C9
:10477000CF92DF92EF92FF920F931F93CF93DF932D
:10478000FC01908067E775E2892D0E94CC31EC0135
:10479000F8940E947B299B01AC01EC85FD859081FA
:1047A0008E85892378948823B9F0A12CB12C6501DA
:1047B000E12CF12C8701692DCE0143960E94A0388F
:1047C000DF91CF911F910F91FF90EF90DF90CF90ED
:1047D000BF90AF909F90089584E0A82EB12CC12C7B
:1047E000D12CE6CF0F931F93CF93DF938C0167E714
:1047F00075E2FC0180810E94CC31EC0167EC70E332
:10480000F80184810E94CC31C55BDF4F9983888396
:10481000DF91CF911F910F9108959F92AF92BF9218
:10482000CF92DF92EF92FF920F931F93CF93DF937C
:10483000FC0190806EEE75E2892D0E94CC31EC0176
:10484000F8940E947B299B01AC01EA89FB89908145
:104850008C89892378948823B9F0A12CB12C650127
:10486000E12CF12C8701692DCE0148960E94A038D9
:10487000DF91CF911F910F91FF90EF90DF90CF903C
:10488000BF90AF909F90089584E0A82EB12CC12CCA
:10489000D12CE6CF0F931F93CF93DF938C016EEE55
:1048A00075E2FC0180810E94CC31EC0167EC70E381
:1048B000F80184810E94CC31C05BDF4F99838883EB
:1048C000DF91CF911F910F9108950F931F93CF9375
:1048D000DF938C0147E550E065E674E2FC018081DE
:1048E0000E949D31EC018DE192E29B838A836DEA07
:1048F0007DE2F80184810E94CC319D878C87DF9115
:10490000CF911F910F9108950F931F93CF93DF9332
:104910008C014BE450E064E874E2FC0180810E9469
:104920009D31EC0183ED92E29B838A836DEA7DE207
:10493000F80184810E94CC319D878C87DF91CF91D3
:104940001F910F9108950F931F93CF93DF938C01C5
:1049500065E674E2FC0180810E94CC31EC010E948A
:10496000DD468E858E7F8E87F80184819581A681B4
:10497000B7810097A105B105F1F088879987AA87CB
:10498000BB87188A1F861A8A198A1B8AF8940E9484
:104990007B29088519852A853B85DC01CB01800FA1
:1049A000911FA21FB31F8C839D83AE83BF83CE0153
:1049B0000E942F477894DF91CF911F910F91089516
:1049C0000F931F93CF93DF938C0167E775E2FC0190
:1049D00080810E94CC31EC010E94DD46198AF801E9
:1049E00084819581A681B78188879987AA87BB87AB
:1049F000892B8A2B8B2BD1F01C8A1B8A1E8A1D8A3D
:104A00001F8AF8940E947B29088519852A853B8591
:104A1000DC01CB01800F911FA21FB31F8C839D83EC
:104A2000AE83BF83CE010E942F477894DF91CF9150
:104A30001F910F9108950F931F93CF93DF93FC0164
:104A4000C081D1811281038165E674E28C2F0E94BE
:104A5000CC31FC01ED5AFF4F23812F9322812F93FC
:104A600021812F9320812F933797808182FB882784
:104A700080F91F928F930F931F93DF93CF938FEA49
:104A800094E19F938F930E94983F8DB79EB70C96A9
:104A90000FB6F8949EBF0FBE8DBFDF91CF911F91CF
:104AA0000F910895EF92FF920F931F93CF93DF938F
:104AB000EC010E94652465E674E288810E94CC3195
:104AC0008C017C0187E4E80EF11C61E088850E947E
:104AD0006C30F70160837183828382E0F8018687FE
:104AE000DF91CF911F910F91FF90EF9008950F9359
:104AF0001F93CF93DF938C014DE450E067E775E29D
:104B0000FC0180810E949D31EC018FE492E29B8345
:104B10008A83198A62E971E4F80184810E94CC31A8
:104B2000988B8F8760E0F80180850E946C306C87DD
:104B30007D878E87DF91CF911F910F9108950F93FD
:104B40001F93CF93DF938C016EEE75E2FC018081A1
:104B50000E94CC31EC010E94DD4619861E861F861C
:104B6000188A198AF80184819581A681B7818A877C
:104B70009B87AC87BD87892B8A2B8B2B29F16D896D
:104B80007E898F8940E00E94A530198E188E1B8E79
:104B90001A8E1C8EF8940E947B290A851B852C8511
:104BA0003D85DC01CB01800F911FA21FB31F8C83B9
:104BB0009D83AE83BF83CE010E942F477894DF91FF
:104BC000CF911F910F9108956D897E898F8941E062
:104BD000DF91CF911F910F910C94A5300F931F93EC
:104BE000CF93DF93EC0142E550E06EEE75E28881F1
:104BF0000E949D318C0180E992E2F80193838283C7
:104C00008C819FEF980F9430C8F4F801808761E0A1
:104C100088850E946C30F801628B738B848B60E016
:104C20008C850E942328F801658B768B878B41E069
:104C3000DF91CF911F910F910C94A5308EE20E94CD
:104C400094492F923F924F925F926F927F928F92F0
:104C50009F92AF92BF92CF92DF92EF92FF920F930B
:104C60001F93CF93DF9300D01F921F92CDB7DEB773
:104C70003C0164E874E2FC0180810E94CC314C016B
:104C80008BE18B838E010C5F1F4F21E0AE014D5FE6
:104C90005F4F61E0F401848595850E9490200E9419
:104CA000D01B8C818F7031F0F40185899689019633
:104CB000968B858B80E78D830E947B291B012C01BD
:104CC0008E010F5F1F4F22E0AE014B5F5F4F61E02F
:104CD000F401848595850E9490200E94D01B0E943B
:104CE0007B2929812F71A22EB12CBA2CAA242A81CA
:104CF000A22A0B2C000CCC08DD087B018C01E218E9
:104D0000F30804091509A2019101F3016081C401AE
:104D100043960E94A0380F900F900F900F900F9025
:104D2000DF91CF911F910F91FF90EF90DF90CF9087
:104D3000BF90AF909F908F907F906F905F904F90BB
:104D40003F902F9008952F923F924F925F926F92D3
:104D50007F928F929F92AF92BF92CF92DF92EF920B
:104D6000FF920F931F93CF93DF9300D01F921F9258
:104D7000CDB7DEB73C0169EF7AE3FC0180810E9488
:104D8000CC314C018AE38B838E010C5F1F4F21E0F5
:104D9000AE014D5F5F4F61E0F401848595850E940F
:104DA00090200E94D01B8C8184FF06C0F40185896D
:104DB00096890196968B858B82E78D830E947B294D
:104DC0001B012C018E010F5F1F4F22E0AE014B5FD4
:104DD0005F4F61E0F401848595850E9490200E94D8
:104DE000D01B0E947B2929812F71A22EB12CBA2CB5
:104DF000AA242A81A22A0B2C000CCC08DD087B01F6
:104E00008C01E218F30804091509A2019101F301CC
:104E10006081C40143960E94A0380F900F900F90BC
:104E20000F900F90DF91CF911F910F91FF90EF9016
:104E3000DF90CF90BF90AF909F908F907F906F90BA
:104E40005F904F903F902F9008950F931F93CF93B3
:104E5000DF93EC01F8940E947B29088519852A8547
:104E60003B85DC01CB01800F911FA21FB31F8C83F8
:104E70009D83AE83BF83CE010E942F477894DF913C
:104E8000CF911F910F9108950F931F93CF93DF93AD
:104E90008C0164E874E2FC0180810E94CC31EC0159
:104EA0000E94DD461A8AF80184819581A681B78126
:104EB0000097A105B10529F4DF91CF911F910F91C2
:104EC000089588879987AA87BB871C8A1B8A1E8AB0
:104ED0001D8A1F8A1F861E86198A188ACE01DF91B5
:104EE000CF911F910F910C942527B0990FC08091FD
:104EF0005A0290915B0201961092050210920402F0
:104F0000909307028093060281E0089581E086BBBA
:104F100080915A0290915B02019690935B0280937C
:104F20005A0220E030E83093050220930402909367
:104F300007028093060281E00895CF93FC01C081AF
:104F400067EC70E38C2F0E94CC31FC0187858F9336
:104F500086858F9385858F9384858F9382A586958B
:104F600081701F928F931F92CF9387E994E19F9353
:104F70008F930E94983F8DB79EB70A960FB6F8940C
:104F80009EBF0FBE8DBFCF910895FF920F931F93C9
:104F9000CF93DF938C0167EC70E3FC0180810E946A
:104FA000CC31EC010E94DD468AA58C7FF82E8AA7C1
:104FB0001C861D861E861F861D8E1C8EF80184850C
:104FC0009585A685B785892B8A2B8B2B31F4DF91AC
:104FD000CF911F910F91FF9008956DEF7DE3848134
:104FE0000E94CC319D8F8C8FF80180858BA78485A2
:104FF0008CA780899189A289B3898C839D83AE8394
:10500000BF8380899189A289B389888F998FAA8F5C
:10501000BB8F84899589A689B7898C8B9D8BAE8B34
:10502000BF8B808D8DA71EA68DE691E39B838A831F
:105030008F2D85608AA7CE01DF91CF911F910F91AF
:10504000FF900C942F47803680F5E82FE695E69583
:10505000E695F0E0EE0FFF1FED5CFA4EA591B491DE
:10506000109719F1877021E030E0A90102C0440FC8
:10507000551F8A95E2F7CA014FB7F89411962C9103
:105080001197282B12963C91129761110CC0582F42
:105090005095352312963C93129711962C931197A5
:1050A0004FBFBD010895382BF5CF89E30E94944985
:1050B0001F920F920FB60F9211240BB60F92EF9220
:1050C000FF920F931F932F933F934F935F936F9391
:1050D0007F938F939F93AF93BF93CF93DF93EF9380
:1050E000FF930DC07A0180918400909185008E1904
:1050F0009F0997FD7CC07894B2999AC0F894C091AA
:105100002202D0912302EA81FB81309709F0ACC0E2
:10511000EA8DFB8D2C8D20838E859F85019709F468
:10512000D2C09F878E8788859985AA85BB854C814B
:105130005D816E817F81480F591F6A1F7B1F4C83E1
:105140005D836E837F8320832CA526FF0EC00C8594
:105150001D85012E000C220B330B800F911FA21F07
:10516000B31F88879987AA87BB87E881F981048163
:10517000158126813781872F401751076207830BDE
:1051800087FDB0CF7801F0932302E0932202A09133
:105190002402B091250214960D911D912D913C9100
:1051A0001797872F401751076207830B87FFFD0171
:1051B000DF010190F081E02D048115812681378186
:1051C000872F401751076207830B87FFF1CFF983C1
:1051D000E883CD93DC93D0932502C0932402809181
:1051E0008400909185008E199F0997FF84CF863A9D
:1051F0009F4F0CF07BC0F0928900E0928800FF91F5
:10520000EF91DF91CF91BF91AF919F918F917F915E
:105210006F915F914F913F912F911F910F91FF904F
:10522000EF900F900BBE0F900FBE0F901F90189530
:10523000F89480918400909185009701281B390B88
:105240002038314C0CF44BC02091270227FD29C097
:105250009C012854344F30938B0020938A0024E023
:1052600026BB7C01F394C7CFCE0119954C815D819B
:105270006E817F81811179CFE881F981E480F580A9
:10528000F0932302E0932202809124029091250260
:10529000C817D90709F027CFF0932502E09324021D
:1052A00022CF20912602209327029C01205C304EC1
:1052B00030938B0020938A0024E026BB90938900D2
:1052C0008093880010CFCE010E94D218EA8DFB8D0A
:1052D0009C8D90834C815D816E817F81CBCF2091AD
:1052E00028022111B1CF87E30E9494497894B299A2
:1052F0009FCFF894F8CE2FB7F89460918400709106
:10530000850080915A0290915B02B09902C02FBF34
:1053100008952FBF7F3FE1F30196089578940E948E
:10532000AD472FEF260F6623C1F0FC018FEF9FEFF3
:1053300031918327082E8295807F8025092E982F12
:1053400082958F700826869598278927880F880F61
:10535000880F8025215060F708958FEF9FEF089503
:10536000CF93DF93FC0184819581A681B781448925
:10537000558966897789C58DD68D3881C42FC170CE
:10538000278D232331E009F430E0C31761F04F5F2C
:105390005F4F6F4F7F4F448B558B668B778B808F22
:1053A000918FA28FB38F4089518962897389272F8A
:1053B000481759076A072B0B27FF18C0248D216057
:1053C000248F4485558566857785840F951FA61F94
:1053D000B71F808B918BA28BB38B1092260281E03A
:1053E00080935C0284819581A681B7814085518537
:1053F00062857385840F951FA61FB71F84839583CD
:10540000A683B78381E0DF91CF9108950F931F9317
:10541000CF93DF938C0168E37AE2FC0180810E94E4
:10542000CC31EC010E94DD46F80184819581A68192
:10543000B7818C839D83AE83BF8340855185628510
:105440007385488759876A877B8744855585668534
:1054500077854C875D876E877F87888B998BAA8B32
:10546000BB8BCE01DF91CF911F910F910C942F47F1
:105470000F931F93CF93DF93EC0140E250E068E37A
:105480007AE288810E949D318C0168858C810E941E
:105490006C30F801658F768F878F80EB99E293836C
:1054A0008283DF91CF911F910F9108954F925F9268
:1054B0006F927F92BF92CF92DF92EF92FF920F9303
:1054C0001F93CF93DF93FC01B0806BE27BE28B2DC7
:1054D0000E94CC31EC014D805E806F807884C9845D
:1054E000DA84EB84FC840E947B29DC01CB018419E3
:1054F0009509A609B7098C159D05AE05BF0568F489
:105500000E947B29DC01CB0184199509A609B70902
:105510008C159D05AE05BF0598F3CD84DE846881AA
:1055200079818A81A0918400B09185000B811C81D2
:105530009E01215F3F4F7901C20ED31ECE14DF04BE
:1055400009F457C0F70191917F0128E013C0F89446
:105550004091840050918500FB0180838083789482
:10556000FA01EA1BFB0BE017F107D8F4990FDA01F7
:10557000215021F397FFEBCFF89440918400509194
:105580008500FB0180837894FA01EA1BFB0BE0178E
:10559000F10738F4990FF894FB0180837894DA01CD
:1055A000E7CF40E00E94A5300E947B296D837E8377
:1055B0008F83988780E01F928F931F92BF9281EC18
:1055C00094E19F938F930E94983F0F900F900F90BC
:1055D0000F900F900F90DF91CF911F910F91FF903F
:1055E000EF90DF90CF90BF907F906F905F904F9043
:1055F00008950E947B296D837E838F83988781E045
:10560000DACF0F931F93CF93DF93EC016BE27BE232
:1056100088810E94CC310C811D812E813F8148857B
:105620006C857D8517FD14C050E0DA01A00FB11F15
:10563000EC01ED85FE85EA17FB0750F0015F1F4F77
:10564000800F911FDF91CF911F910F910C941E4EEF
:1056500086E20E9494496F927F928F92CF92DF925E
:10566000EF92FF92CF93DF93EC0160E08C810E9478
:1056700023283B01882EC884D984EA84FB84D7FC84
:1056800024C0A601415F5F4F6BE27BE288810E94EC
:105690009D31FC01608271828282D686C5868C85AE
:1056A0009D859483838388899989AA89BB89818709
:1056B0009287A387B487DF91CF91FF90EF90DF901F
:1056C000CF908F907F906F90089587E20E949449C9
:1056D000CF93DF93DC011C96ED91FC911D971E96F4
:1056E0009C911E971F96CD91DC91509751962C91CD
:1056F00088E005C09083660F9083815049F067FF72
:10570000F9CF288360959083660F90838150B9F715
:10571000DF91CF910895FC011092260281E08093E1
:105720005D02818D8160818F4481558166817781A1
:1057300080859185A285B385840F951FA61FB71F0D
:1057400084839583A683B78381E008950F931F9385
:10575000CF93DF938C0168EE7BE2FC0180810E9495
:10576000CC31EC010E94DD46F80184819581A6814F
:10577000B7818C839D83AE83BF8380859185A2850D
:10578000B38588879987AA87BB87892B8A2B8B2B20
:1057900029F4DF91CF911F910F910895848595850C
:1057A000A685B7858C879D87AE87BF8780899189BD
:1057B000A289B389888B998BAA8BBB8B84898E8BAA
:1057C0001F8ACE01DF91CF911F910F910C942F472B
:1057D000FF920F931F93CF93DF93EC01F88483E044
:1057E0008F15E0F04AE150E068EE7BE288810E948C
:1057F0009D318C018BE89BE2F8019383828362E9FF
:1058000071E48C810E94CC31F801958B848BF08EF1
:10581000DF91CF911F910F91FF90089589E20E942F
:105820009449EF92FF920F931F93CF93DF938C01D4
:105830006DEA7DE2FC0180810E94CC317C0181E136
:1058400090E00E94753FEC01F80184859585A6855E
:10585000B7858D879E87AF87B88B8089880F8C87A7
:1058600061E084810E942328688379838A8361E0D0
:10587000F80184810E946C306E837F83888761E0A9
:10588000F80180850E9423286B837C838D8361E0EF
:10589000F80180850E946C3069877A878B87F701D1
:1058A000D183C083828181608283DF91CF911F91F8
:1058B0000F91FF90EF9008958F929F92AF92BF92B9
:1058C000CF92EF920F931F93CF93DF93EC01480198
:1058D00059011F92EF92BF92AF929F920F937F93C5
:1058E0006F935F934F931F92CF9285EB94E19F93B9
:1058F0008F930E94983F8DB79EB70E960FB6F8947F
:105900009EBF0FBE8DBFE11009C08C859D85AE8501
:10591000BF8588169906AA06BB0688F48F898F5F13
:105920008F8B9E898917B0F4DF91CF911F910F91D2
:10593000EF90CF90BF90AF909F908F9008958889FF
:105940009989AA89BB8988159905AA05BB0530F3F1
:105950001F8AEACF809128028111FACF88E20E9443
:105960009449CF92DF92EF92FF926B017C010E94EB
:105970007B29C60ED71EE81EF91E0E947B29292FFF
:105980006C157D058E052F0927FDF7CFFF90EF9051
:10599000DF90CF900895CF93DF93EC016B817C81F2
:1059A0008D8140E00E94B4306D857E858F85988919
:1059B0000E94B12C6E817F81888541E00E94563023
:1059C0006D857E858F8598890E94B12C69857A8541
:1059D0008B8541E0DF91CF910C945630FF920F936D
:1059E0001F93CF93DF93EC01062F18E082E0F82E8F
:1059F0001DC0F11029C0000F6D857E858F859889A7
:105A00000E94B12C6E817F81888541E00E945630D2
:105A10006D857E858F8598890E94B12C68817981FA
:105A20008A8140E00E94B4301150B1F007FFE1CF0D
:105A300081E0F81601F369857A858B8541E00E9443
:105A40005630FF24F394D7CF6B817C818D8140E069
:105A50000E94B430F12CCFCFF11006C069857A8551
:105A60008B8541E00E9456306D857E858F859889B3
:105A70000E94B12C6E817F81888541E00E94563062
:105A8000E985FA8510818B8518236D857E858F8544
:105A900098890E94B12C688179818A8140E00E94B6
:105AA000B43081E090E0111102C080E090E0DF911D
:105AB000CF911F910F91FF9008951F93CF93DF9384
:105AC000EC01162F6D857E858F8598890E94B12CFB
:105AD00069857A858B8541E00E9456306E817F8191
